{
  "transactions": [
    {
      "hash": "0xe44551875071cfd5818b259793651f07aa8d87c62607f43256cd6ee24e88c626",
      "transactionType": "CALL",
      "contractName": null,
      "contractAddress": "0x078d782b760474a361dda0af3839290b0ef57ad6",
      "function": "approve(address,uint256)",
      "arguments": [
        "0x000000000022D473030F116dDEE9F6B43aC78BA3",
        "115792089237316195423570985008687907853269984665640564039457584007913129639935"
      ],
      "transaction": {
        "from": "0x5a11ce93c726519375d6095b437ed152eb2aaef4",
        "to": "0x078d782b760474a361dda0af3839290b0ef57ad6",
        "gas": "0x12ca9",
        "value": "0x0",
        "input": "0x095ea7b3000000000000000000000000000000000022d473030f116ddee9f6b43ac78ba3ffffffffffffffffffffffffffffffffffffffffffffffffffffffffffffffff",
        "nonce": "0x4",
        "chainId": "0x82"
      },
      "additionalContracts": [],
      "isFixedGasLimit": false
    },
    {
      "hash": "0x087b1dd548b884818645490278c7fb43b635bff3a72ce07eb114093f691683e1",
      "transactionType": "CALL",
      "contractName": null,
      "contractAddress": "0x000000000022d473030f116ddee9f6b43ac78ba3",
      "function": "approve(address,address,uint160,uint48)",
      "arguments": [
        "0x078D782b760474a361dDA0AF3839290b0EF57AD6",
        "0x4529A01c7A0410167c5740C487A8DE60232617bf",
        "1461501637330902918203684832716283019655932542975",
        "281474976710655"
      ],
      "transaction": {
        "from": "0x5a11ce93c726519375d6095b437ed152eb2aaef4",
        "to": "0x000000000022d473030f116ddee9f6b43ac78ba3",
        "gas": "0x1112d",
        "value": "0x0",
        "input": "0x87517c45000000000000000000000000078d782b760474a361dda0af3839290b0ef57ad60000000000000000000000004529a01c7a0410167c5740c487a8de60232617bf000000000000000000000000ffffffffffffffffffffffffffffffffffffffff0000000000000000000000000000000000000000000000000000ffffffffffff",
        "nonce": "0x5",
        "chainId": "0x82"
      },
      "additionalContracts": [],
      "isFixedGasLimit": false
    },
    {
      "hash": "0x878be2ff6b5fa469392a32541bd3b32c5a26689fc5fb5c2b8f856ee837442935",
      "transactionType": "CALL",
      "contractName": null,
      "contractAddress": "0x4529a01c7a0410167c5740c487a8de60232617bf",
      "function": "multicall(bytes[])",
      "arguments": [
        "[0xf70204050000000000000000000000000000000000000000000000000000000000000000000000000000000000000000078d782b760474a361dda0af3839290b0ef57ad60000000000000000000000000000000000000000000000000000000000800000000000000000000000000000000000000000000000000000000000000000000a000000000000000000000000b9a17e66db950e00822c2b833d6bb304c9b8608000000000000000000000000000000000000000000002cfd187a8dd35416df3e100000000000000000000000000000000000000000000000000000000000000e00000000000000000000000000000000000000000000000000000000000000000, 0xdd46508f00000000000000000000000000000000000000000000000000000000000000400000000000000000000000000000000000000000000000000000000067e8d481000000000000000000000000000000000000000000000000000000000000056000000000000000000000000000000000000000000000000000000000000000400000000000000000000000000000000000000000000000000000000000000080000000000000000000000000000000000000000000000000000000000000000402020d14000000000000000000000000000000000000000000000000000000000000000000000000000000000000000000000000000000000000000000000004000000000000000000000000000000000000000000000000000000000000008000000000000000000000000000000000000000000000000000000000000002400000000000000000000000000000000000000000000000000000000000000400000000000000000000000000000000000000000000000000000000000000046000000000000000000000000000000000000000000000000000000000000001a00000000000000000000000000000000000000000000000000000000000000000000000000000000000000000078d782b760474a361dda0af3839290b0ef57ad60000000000000000000000000000000000000000000000000000000000800000000000000000000000000000000000000000000000000000000000000000000a000000000000000000000000b9a17e66db950e00822c2b833d6bb304c9b86080fffffffffffffffffffffffffffffffffffffffffffffffffffffffffffce596fffffffffffffffffffffffffffffffffffffffffffffffffffffffffffcf5720000000000000000000000000000000000000000000000000000c3f5bc553c7700000000000000000000000000000000000000000000000006f05b59d3b203e8000000000000000000000000000000000000000000000000000000003a1d55a80000000000000000000000005a11ce93c726519375d6095b437ed152eb2aaef40000000000000000000000000000000000000000000000000000000000000180000000000000000000000000000000000000000000000000000000000000000000000000000000000000000000000000000000000000000000000000000001a00000000000000000000000000000000000000000000000000000000000000000000000000000000000000000078d782b760474a361dda0af3839290b0ef57ad600000000000000000000000000000000000000000000000000000000000001f4000000000000000000000000000000000000000000000000000000000000000a0000000000000000000000000000000000000000000000000000000000000000fffffffffffffffffffffffffffffffffffffffffffffffffffffffffffce596fffffffffffffffffffffffffffffffffffffffffffffffffffffffffffcf5720000000000000000000000000000000000000000000000000000c3f5bc553c7700000000000000000000000000000000000000000000000006f05b59d3b203e8000000000000000000000000000000000000000000000000000000003a1d55a80000000000000000000000005a11ce93c726519375d6095b437ed152eb2aaef40000000000000000000000000000000000000000000000000000000000000180000000000000000000000000000000000000000000000000000000000000000000000000000000000000000000000000000000000000000000000000000000400000000000000000000000000000000000000000000000000000000000000000000000000000000000000000078d782b760474a361dda0af3839290b0ef57ad6000000000000000000000000000000000000000000000000000000000000004000000000000000000000000000000000000000000000000000000000000000000000000000000000000000005a11ce93c726519375d6095b437ed152eb2aaef4]"
      ],
      "transaction": {
        "from": "0x5a11ce93c726519375d6095b437ed152eb2aaef4",
        "to": "0x4529a01c7a0410167c5740c487a8de60232617bf",
        "gas": "0xe15bc",
        "value": "0xde0b6b3a76407d0",
        "input": "0xac9650d800000000000000000000000000000000000000000000000000000000000000200000000000000000000000000000000000000000000000000000000000000002000000000000000000000000000000000000000000000000000000000000004000000000000000000000000000000000000000000000000000000000000001800000000000000000000000000000000000000000000000000000000000000104f70204050000000000000000000000000000000000000000000000000000000000000000000000000000000000000000078d782b760474a361dda0af3839290b0ef57ad60000000000000000000000000000000000000000000000000000000000800000000000000000000000000000000000000000000000000000000000000000000a000000000000000000000000b9a17e66db950e00822c2b833d6bb304c9b8608000000000000000000000000000000000000000000002cfd187a8dd35416df3e100000000000000000000000000000000000000000000000000000000000000e000000000000000000000000000000000000000000000000000000000000000000000000000000000000000000000000000000000000000000000000000000000000000000000000000000000000000000000000000000000000005c4dd46508f00000000000000000000000000000000000000000000000000000000000000400000000000000000000000000000000000000000000000000000000067e8d481000000000000000000000000000000000000000000000000000000000000056000000000000000000000000000000000000000000000000000000000000000400000000000000000000000000000000000000000000000000000000000000080000000000000000000000000000000000000000000000000000000000000000402020d14000000000000000000000000000000000000000000000000000000000000000000000000000000000000000000000000000000000000000000000004000000000000000000000000000000000000000000000000000000000000008000000000000000000000000000000000000000000000000000000000000002400000000000000000000000000000000000000000000000000000000000000400000000000000000000000000000000000000000000000000000000000000046000000000000000000000000000000000000000000000000000000000000001a00000000000000000000000000000000000000000000000000000000000000000000000000000000000000000078d782b760474a361dda0af3839290b0ef57ad60000000000000000000000000000000000000000000000000000000000800000000000000000000000000000000000000000000000000000000000000000000a000000000000000000000000b9a17e66db950e00822c2b833d6bb304c9b86080fffffffffffffffffffffffffffffffffffffffffffffffffffffffffffce596fffffffffffffffffffffffffffffffffffffffffffffffffffffffffffcf5720000000000000000000000000000000000000000000000000000c3f5bc553c7700000000000000000000000000000000000000000000000006f05b59d3b203e8000000000000000000000000000000000000000000000000000000003a1d55a80000000000000000000000005a11ce93c726519375d6095b437ed152eb2aaef40000000000000000000000000000000000000000000000000000000000000180000000000000000000000000000000000000000000000000000000000000000000000000000000000000000000000000000000000000000000000000000001a00000000000000000000000000000000000000000000000000000000000000000000000000000000000000000078d782b760474a361dda0af3839290b0ef57ad600000000000000000000000000000000000000000000000000000000000001f4000000000000000000000000000000000000000000000000000000000000000a0000000000000000000000000000000000000000000000000000000000000000fffffffffffffffffffffffffffffffffffffffffffffffffffffffffffce596fffffffffffffffffffffffffffffffffffffffffffffffffffffffffffcf5720000000000000000000000000000000000000000000000000000c3f5bc553c7700000000000000000000000000000000000000000000000006f05b59d3b203e8000000000000000000000000000000000000000000000000000000003a1d55a80000000000000000000000005a11ce93c726519375d6095b437ed152eb2aaef40000000000000000000000000000000000000000000000000000000000000180000000000000000000000000000000000000000000000000000000000000000000000000000000000000000000000000000000000000000000000000000000400000000000000000000000000000000000000000000000000000000000000000000000000000000000000000078d782b760474a361dda0af3839290b0ef57ad6000000000000000000000000000000000000000000000000000000000000004000000000000000000000000000000000000000000000000000000000000000000000000000000000000000005a11ce93c726519375d6095b437ed152eb2aaef400000000000000000000000000000000000000000000000000000000",
        "nonce": "0x6",
        "chainId": "0x82"
      },
      "additionalContracts": [],
      "isFixedGasLimit": false
    }
  ],
  "receipts": [
    {
      "status": "0x1",
      "cumulativeGasUsed": "0x1851f",
      "logs": [
        {
          "address": "0x078d782b760474a361dda0af3839290b0ef57ad6",
          "topics": [
            "0x8c5be1e5ebec7d5bd14f71427d1e84f3dd0314c0f7b2291e5b200ac8c7c3b925",
            "0x0000000000000000000000005a11ce93c726519375d6095b437ed152eb2aaef4",
            "0x000000000000000000000000000000000022d473030f116ddee9f6b43ac78ba3"
          ],
          "data": "0xffffffffffffffffffffffffffffffffffffffffffffffffffffffffffffffff",
          "blockHash": "0x81db5db4869dcee036444b775f1f46b68bbc8abeb2e85b1eca060240a47a3c00",
          "blockNumber": "0xbfb48b",
          "transactionHash": "0xe44551875071cfd5818b259793651f07aa8d87c62607f43256cd6ee24e88c626",
          "transactionIndex": "0x1",
          "logIndex": "0x0",
          "removed": false
        }
      ],
      "logsBloom": "0x00000000000000000000000000000000000000000000000000000000000000000000000000000000000000000000000000000000800000000000000200200000000000000000000000004000000000000004200000000800000000000000000000000000000000000000000000000000000000000000000000000002000000000000000000000000000000000000000000000000000000000000000000000000020000000000000000000000000000000000000000000000000000000000000000000000000000000000000000000000000000000000000000000000000000000010000000000000000000000000000000402000000000000000000000000000",
      "type": "0x2",
      "transactionHash": "0xe44551875071cfd5818b259793651f07aa8d87c62607f43256cd6ee24e88c626",
      "transactionIndex": "0x1",
      "blockHash": "0x81db5db4869dcee036444b775f1f46b68bbc8abeb2e85b1eca060240a47a3c00",
      "blockNumber": "0xbfb48b",
      "gasUsed": "0xd9ad",
      "effectiveGasPrice": "0xfd",
      "from": "0x5a11ce93c726519375d6095b437ed152eb2aaef4",
      "to": "0x078d782b760474a361dda0af3839290b0ef57ad6",
      "contractAddress": null,
      "l1BaseFeeScalar": "0x7d0",
      "l1BlobBaseFee": "0x3",
      "l1BlobBaseFeeScalar": "0xdbba0",
      "l1Fee": "0x49ed3c4a",
      "l1GasPrice": "0x171a2283",
      "l1GasUsed": "0x640"
    },
    {
      "status": "0x1",
      "cumulativeGasUsed": "0x23fe9",
      "logs": [
        {
          "address": "0x000000000022d473030f116ddee9f6b43ac78ba3",
          "topics": [
            "0xda9fa7c1b00402c17d0161b249b1ab8bbec047c5a52207b9c112deffd817036b",
            "0x0000000000000000000000005a11ce93c726519375d6095b437ed152eb2aaef4",
            "0x000000000000000000000000078d782b760474a361dda0af3839290b0ef57ad6",
            "0x0000000000000000000000004529a01c7a0410167c5740c487a8de60232617bf"
          ],
          "data": "0x000000000000000000000000ffffffffffffffffffffffffffffffffffffffff0000000000000000000000000000000000000000000000000000ffffffffffff",
          "blockHash": "0x81db5db4869dcee036444b775f1f46b68bbc8abeb2e85b1eca060240a47a3c00",
          "blockNumber": "0xbfb48b",
          "transactionHash": "0x087b1dd548b884818645490278c7fb43b635bff3a72ce07eb114093f691683e1",
          "transactionIndex": "0x2",
          "logIndex": "0x1",
          "removed": false
        }
      ],
      "logsBloom": "0x00010000000000000000000000000000000000000000000000000000000000000000000000000000000000000000000000000000000000000000000200080000000000000000000000000000000000000004000000000800000000000000000000000000000000000000000000000000000000000000000000000002000000000020000000000000000000000000000000000000080000000000008000000000000000800000000000000000000000000000000000000000000000080000000000000000000008000000000000000000000000000000000040000000000000000000000000000000000000000000000000000000000000200000000000000400",
      "type": "0x2",
      "transactionHash": "0x087b1dd548b884818645490278c7fb43b635bff3a72ce07eb114093f691683e1",
      "transactionIndex": "0x2",
      "blockHash": "0x81db5db4869dcee036444b775f1f46b68bbc8abeb2e85b1eca060240a47a3c00",
      "blockNumber": "0xbfb48b",
      "gasUsed": "0xbaca",
      "effectiveGasPrice": "0xfd",
      "from": "0x5a11ce93c726519375d6095b437ed152eb2aaef4",
      "to": "0x000000000022d473030f116ddee9f6b43ac78ba3",
      "contractAddress": null,
      "l1BaseFeeScalar": "0x7d0",
      "l1BlobBaseFee": "0x3",
      "l1BlobBaseFeeScalar": "0xdbba0",
      "l1Fee": "0x4f35fe0f",
      "l1GasPrice": "0x171a2283",
      "l1GasUsed": "0x6b2"
    },
    {
      "status": "0x1",
      "cumulativeGasUsed": "0xc7267",
      "logs": [
        {
          "address": "0x1f98400000000000000000000000000000000004",
          "topics": [
            "0xdd466e674ea557f56295e2d0218a125ea4b4f0f6f3307b95f85e6110838d6438",
            "0x740e789c2c770383feca96b0c38a952531711ef041b6e8300b47f0b2c9e3f3c8",
            "0x0000000000000000000000000000000000000000000000000000000000000000",
            "0x000000000000000000000000078d782b760474a361dda0af3839290b0ef57ad6"
          ],
          "data": "0x0000000000000000000000000000000000000000000000000000000000800000000000000000000000000000000000000000000000000000000000000000000a000000000000000000000000b9a17e66db950e00822c2b833d6bb304c9b8608000000000000000000000000000000000000000000002cfd187a8dd35416df3e1fffffffffffffffffffffffffffffffffffffffffffffffffffffffffffcee4b",
          "blockHash": "0x81db5db4869dcee036444b775f1f46b68bbc8abeb2e85b1eca060240a47a3c00",
          "blockNumber": "0xbfb48b",
          "transactionHash": "0x878be2ff6b5fa469392a32541bd3b32c5a26689fc5fb5c2b8f856ee837442935",
          "transactionIndex": "0x3",
          "logIndex": "0x2",
          "removed": false
        },
        {
          "address": "0x4529a01c7a0410167c5740c487a8de60232617bf",
          "topics": [
            "0xddf252ad1be2c89b69c2b068fc378daa952ba7f163c4a11628f55a4df523b3ef",
            "0x0000000000000000000000000000000000000000000000000000000000000000",
            "0x0000000000000000000000005a11ce93c726519375d6095b437ed152eb2aaef4",
            "0x00000000000000000000000000000000000000000000000000000000000077cb"
          ],
          "data": "0x",
          "blockHash": "0x81db5db4869dcee036444b775f1f46b68bbc8abeb2e85b1eca060240a47a3c00",
          "blockNumber": "0xbfb48b",
          "transactionHash": "0x878be2ff6b5fa469392a32541bd3b32c5a26689fc5fb5c2b8f856ee837442935",
          "transactionIndex": "0x3",
          "logIndex": "0x3",
          "removed": false
        },
        {
          "address": "0x1f98400000000000000000000000000000000004",
          "topics": [
            "0xf208f4912782fd25c7f114ca3723a2d5dd6f3bcc3ac8db5af63baa85f711d5ec",
            "0x740e789c2c770383feca96b0c38a952531711ef041b6e8300b47f0b2c9e3f3c8",
            "0x0000000000000000000000004529a01c7a0410167c5740c487a8de60232617bf"
          ],
          "data": "0xfffffffffffffffffffffffffffffffffffffffffffffffffffffffffffce596fffffffffffffffffffffffffffffffffffffffffffffffffffffffffffcf5720000000000000000000000000000000000000000000000000000c3f5bc553c7700000000000000000000000000000000000000000000000000000000000077cb",
          "blockHash": "0x81db5db4869dcee036444b775f1f46b68bbc8abeb2e85b1eca060240a47a3c00",
          "blockNumber": "0xbfb48b",
          "transactionHash": "0x878be2ff6b5fa469392a32541bd3b32c5a26689fc5fb5c2b8f856ee837442935",
          "transactionIndex": "0x3",
          "logIndex": "0x4",
          "removed": false
        },
        {
          "address": "0x4529a01c7a0410167c5740c487a8de60232617bf",
          "topics": [
            "0xddf252ad1be2c89b69c2b068fc378daa952ba7f163c4a11628f55a4df523b3ef",
            "0x0000000000000000000000000000000000000000000000000000000000000000",
            "0x0000000000000000000000005a11ce93c726519375d6095b437ed152eb2aaef4",
            "0x00000000000000000000000000000000000000000000000000000000000077cc"
          ],
          "data": "0x",
          "blockHash": "0x81db5db4869dcee036444b775f1f46b68bbc8abeb2e85b1eca060240a47a3c00",
          "blockNumber": "0xbfb48b",
          "transactionHash": "0x878be2ff6b5fa469392a32541bd3b32c5a26689fc5fb5c2b8f856ee837442935",
          "transactionIndex": "0x3",
          "logIndex": "0x5",
          "removed": false
        },
        {
          "address": "0x1f98400000000000000000000000000000000004",
          "topics": [
            "0xf208f4912782fd25c7f114ca3723a2d5dd6f3bcc3ac8db5af63baa85f711d5ec",
            "0x3258f413c7a88cda2fa8709a589d221a80f6574f63df5a5b6774485d8acc39d9",
            "0x0000000000000000000000004529a01c7a0410167c5740c487a8de60232617bf"
          ],
          "data": "0xfffffffffffffffffffffffffffffffffffffffffffffffffffffffffffce596fffffffffffffffffffffffffffffffffffffffffffffffffffffffffffcf5720000000000000000000000000000000000000000000000000000c3f5bc553c7700000000000000000000000000000000000000000000000000000000000077cc",
          "blockHash": "0x81db5db4869dcee036444b775f1f46b68bbc8abeb2e85b1eca060240a47a3c00",
          "blockNumber": "0xbfb48b",
          "transactionHash": "0x878be2ff6b5fa469392a32541bd3b32c5a26689fc5fb5c2b8f856ee837442935",
          "transactionIndex": "0x3",
          "logIndex": "0x6",
          "removed": false
        },
        {
          "address": "0x078d782b760474a361dda0af3839290b0ef57ad6",
          "topics": [
            "0xddf252ad1be2c89b69c2b068fc378daa952ba7f163c4a11628f55a4df523b3ef",
            "0x0000000000000000000000005a11ce93c726519375d6095b437ed152eb2aaef4",
            "0x0000000000000000000000001f98400000000000000000000000000000000004"
          ],
          "data": "0x00000000000000000000000000000000000000000000000000000000743aa380",
          "blockHash": "0x81db5db4869dcee036444b775f1f46b68bbc8abeb2e85b1eca060240a47a3c00",
          "blockNumber": "0xbfb48b",
          "transactionHash": "0x878be2ff6b5fa469392a32541bd3b32c5a26689fc5fb5c2b8f856ee837442935",
          "transactionIndex": "0x3",
          "logIndex": "0x7",
          "removed": false
        }
      ],
      "logsBloom": "0x00000000000000000000000000000000000000000000000000000000000000000000000000000000000000000000000080001000000000000000000200000000000000000000000000000828000000000404200000000800000000000020100000000000020002000000000000000880000000000000000000000012008000001000010001000008000000800000000000000001080000000000008000200000000004808000000000000000100000000000000000000004000020000000800080000002000008000000000000000000000000000000000000000000000420000001000000000000000000000000000004402000000000200000000000000000",
      "type": "0x2",
      "transactionHash": "0x878be2ff6b5fa469392a32541bd3b32c5a26689fc5fb5c2b8f856ee837442935",
      "transactionIndex": "0x3",
      "blockHash": "0x81db5db4869dcee036444b775f1f46b68bbc8abeb2e85b1eca060240a47a3c00",
      "blockNumber": "0xbfb48b",
      "gasUsed": "0xa327e",
      "effectiveGasPrice": "0xfd",
      "from": "0x5a11ce93c726519375d6095b437ed152eb2aaef4",
      "to": "0x4529a01c7a0410167c5740c487a8de60232617bf",
      "contractAddress": null,
      "l1BaseFeeScalar": "0x7d0",
      "l1BlobBaseFee": "0x3",
      "l1BlobBaseFeeScalar": "0xdbba0",
      "l1Fee": "0xfed5eadc",
      "l1GasPrice": "0x171a2283",
      "l1GasUsed": "0x158b"
    }
  ],
  "libraries": [],
  "pending": [],
  "returns": {},
  "timestamp": 1743311954,
  "chain": 130,
  "commit": "8aba85a"
}